{
  "_format": "hh-sol-artifact-1",
  "contractName": "MyNFT",
  "sourceName": "contracts/MyNFT.sol",
  "abi": [
    {
      "inputs": [
        {
          "internalType": "string",
          "name": "name",
          "type": "string"
        },
        {
          "internalType": "string",
          "name": "symbol",
          "type": "string"
        },
        {
          "internalType": "string",
          "name": "baseTokenURI",
          "type": "string"
        }
      ],
      "stateMutability": "nonpayable",
      "type": "constructor"
    },
    {
      "inputs": [
        {
          "internalType": "address",
          "name": "sender",
          "type": "address"
        },
        {
          "internalType": "uint256",
          "name": "tokenId",
          "type": "uint256"
        },
        {
          "internalType": "address",
          "name": "owner",
          "type": "address"
        }
      ],
      "name": "ERC721IncorrectOwner",
      "type": "error"
    },
    {
      "inputs": [
        {
          "internalType": "address",
          "name": "operator",
          "type": "address"
        },
        {
          "internalType": "uint256",
          "name": "tokenId",
          "type": "uint256"
        }
      ],
      "name": "ERC721InsufficientApproval",
      "type": "error"
    },
    {
      "inputs": [
        {
          "internalType": "address",
          "name": "approver",
          "type": "address"
        }
      ],
      "name": "ERC721InvalidApprover",
      "type": "error"
    },
    {
      "inputs": [
        {
          "internalType": "address",
          "name": "operator",
          "type": "address"
        }
      ],
      "name": "ERC721InvalidOperator",
      "type": "error"
    },
    {
      "inputs": [
        {
          "internalType": "address",
          "name": "owner",
          "type": "address"
        }
      ],
      "name": "ERC721InvalidOwner",
      "type": "error"
    },
    {
      "inputs": [
        {
          "internalType": "address",
          "name": "receiver",
          "type": "address"
        }
      ],
      "name": "ERC721InvalidReceiver",
      "type": "error"
    },
    {
      "inputs": [
        {
          "internalType": "address",
          "name": "sender",
          "type": "address"
        }
      ],
      "name": "ERC721InvalidSender",
      "type": "error"
    },
    {
      "inputs": [
        {
          "internalType": "uint256",
          "name": "tokenId",
          "type": "uint256"
        }
      ],
      "name": "ERC721NonexistentToken",
      "type": "error"
    },
    {
      "inputs": [
        {
          "internalType": "address",
          "name": "owner",
          "type": "address"
        }
      ],
      "name": "OwnableInvalidOwner",
      "type": "error"
    },
    {
      "inputs": [
        {
          "internalType": "address",
          "name": "account",
          "type": "address"
        }
      ],
      "name": "OwnableUnauthorizedAccount",
      "type": "error"
    },
    {
      "anonymous": false,
      "inputs": [
        {
          "indexed": true,
          "internalType": "address",
          "name": "owner",
          "type": "address"
        },
        {
          "indexed": true,
          "internalType": "address",
          "name": "approved",
          "type": "address"
        },
        {
          "indexed": true,
          "internalType": "uint256",
          "name": "tokenId",
          "type": "uint256"
        }
      ],
      "name": "Approval",
      "type": "event"
    },
    {
      "anonymous": false,
      "inputs": [
        {
          "indexed": true,
          "internalType": "address",
          "name": "owner",
          "type": "address"
        },
        {
          "indexed": true,
          "internalType": "address",
          "name": "operator",
          "type": "address"
        },
        {
          "indexed": false,
          "internalType": "bool",
          "name": "approved",
          "type": "bool"
        }
      ],
      "name": "ApprovalForAll",
      "type": "event"
    },
    {
      "anonymous": false,
      "inputs": [
        {
          "indexed": false,
          "internalType": "uint256",
          "name": "_fromTokenId",
          "type": "uint256"
        },
        {
          "indexed": false,
          "internalType": "uint256",
          "name": "_toTokenId",
          "type": "uint256"
        }
      ],
      "name": "BatchMetadataUpdate",
      "type": "event"
    },
    {
      "anonymous": false,
      "inputs": [
        {
          "indexed": false,
          "internalType": "uint256",
          "name": "_tokenId",
          "type": "uint256"
        }
      ],
      "name": "MetadataUpdate",
      "type": "event"
    },
    {
      "anonymous": false,
      "inputs": [
        {
          "indexed": true,
          "internalType": "address",
          "name": "previousOwner",
          "type": "address"
        },
        {
          "indexed": true,
          "internalType": "address",
          "name": "newOwner",
          "type": "address"
        }
      ],
      "name": "OwnershipTransferred",
      "type": "event"
    },
    {
      "anonymous": false,
      "inputs": [
        {
          "indexed": true,
          "internalType": "address",
          "name": "from",
          "type": "address"
        },
        {
          "indexed": true,
          "internalType": "address",
          "name": "to",
          "type": "address"
        },
        {
          "indexed": true,
          "internalType": "uint256",
          "name": "tokenId",
          "type": "uint256"
        }
      ],
      "name": "Transfer",
      "type": "event"
    },
    {
      "inputs": [
        {
          "internalType": "address",
          "name": "to",
          "type": "address"
        },
        {
          "internalType": "uint256",
          "name": "tokenId",
          "type": "uint256"
        }
      ],
      "name": "approve",
      "outputs": [],
      "stateMutability": "nonpayable",
      "type": "function"
    },
    {
      "inputs": [
        {
          "internalType": "address",
          "name": "owner",
          "type": "address"
        }
      ],
      "name": "balanceOf",
      "outputs": [
        {
          "internalType": "uint256",
          "name": "",
          "type": "uint256"
        }
      ],
      "stateMutability": "view",
      "type": "function"
    },
    {
      "inputs": [
        {
          "internalType": "uint256",
          "name": "tokenId",
          "type": "uint256"
        }
      ],
      "name": "getApproved",
      "outputs": [
        {
          "internalType": "address",
          "name": "",
          "type": "address"
        }
      ],
      "stateMutability": "view",
      "type": "function"
    },
    {
      "inputs": [
        {
          "internalType": "address",
          "name": "owner",
          "type": "address"
        },
        {
          "internalType": "address",
          "name": "operator",
          "type": "address"
        }
      ],
      "name": "isApprovedForAll",
      "outputs": [
        {
          "internalType": "bool",
          "name": "",
          "type": "bool"
        }
      ],
      "stateMutability": "view",
      "type": "function"
    },
    {
      "inputs": [
        {
          "internalType": "address",
          "name": "to",
          "type": "address"
        }
      ],
      "name": "mint",
      "outputs": [
        {
          "internalType": "uint256",
          "name": "",
          "type": "uint256"
        }
      ],
      "stateMutability": "nonpayable",
      "type": "function"
    },
    {
      "inputs": [],
      "name": "name",
      "outputs": [
        {
          "internalType": "string",
          "name": "",
          "type": "string"
        }
      ],
      "stateMutability": "view",
      "type": "function"
    },
    {
      "inputs": [],
      "name": "owner",
      "outputs": [
        {
          "internalType": "address",
          "name": "",
          "type": "address"
        }
      ],
      "stateMutability": "view",
      "type": "function"
    },
    {
      "inputs": [
        {
          "internalType": "uint256",
          "name": "tokenId",
          "type": "uint256"
        }
      ],
      "name": "ownerOf",
      "outputs": [
        {
          "internalType": "address",
          "name": "",
          "type": "address"
        }
      ],
      "stateMutability": "view",
      "type": "function"
    },
    {
      "inputs": [],
      "name": "renounceOwnership",
      "outputs": [],
      "stateMutability": "nonpayable",
      "type": "function"
    },
    {
      "inputs": [
        {
          "internalType": "address",
          "name": "from",
          "type": "address"
        },
        {
          "internalType": "address",
          "name": "to",
          "type": "address"
        },
        {
          "internalType": "uint256",
          "name": "tokenId",
          "type": "uint256"
        }
      ],
      "name": "safeTransferFrom",
      "outputs": [],
      "stateMutability": "nonpayable",
      "type": "function"
    },
    {
      "inputs": [
        {
          "internalType": "address",
          "name": "from",
          "type": "address"
        },
        {
          "internalType": "address",
          "name": "to",
          "type": "address"
        },
        {
          "internalType": "uint256",
          "name": "tokenId",
          "type": "uint256"
        },
        {
          "internalType": "bytes",
          "name": "data",
          "type": "bytes"
        }
      ],
      "name": "safeTransferFrom",
      "outputs": [],
      "stateMutability": "nonpayable",
      "type": "function"
    },
    {
      "inputs": [
        {
          "internalType": "address",
          "name": "operator",
          "type": "address"
        },
        {
          "internalType": "bool",
          "name": "approved",
          "type": "bool"
        }
      ],
      "name": "setApprovalForAll",
      "outputs": [],
      "stateMutability": "nonpayable",
      "type": "function"
    },
    {
      "inputs": [
        {
          "internalType": "string",
          "name": "baseTokenURI",
          "type": "string"
        }
      ],
      "name": "setBaseURI",
      "outputs": [],
      "stateMutability": "nonpayable",
      "type": "function"
    },
    {
      "inputs": [
        {
          "internalType": "bytes4",
          "name": "interfaceId",
          "type": "bytes4"
        }
      ],
      "name": "supportsInterface",
      "outputs": [
        {
          "internalType": "bool",
          "name": "",
          "type": "bool"
        }
      ],
      "stateMutability": "view",
      "type": "function"
    },
    {
      "inputs": [],
      "name": "symbol",
      "outputs": [
        {
          "internalType": "string",
          "name": "",
          "type": "string"
        }
      ],
      "stateMutability": "view",
      "type": "function"
    },
    {
      "inputs": [
        {
          "internalType": "uint256",
          "name": "tokenId",
          "type": "uint256"
        }
      ],
      "name": "tokenURI",
      "outputs": [
        {
          "internalType": "string",
          "name": "",
          "type": "string"
        }
      ],
      "stateMutability": "view",
      "type": "function"
    },
    {
      "inputs": [],
      "name": "totalSupply",
      "outputs": [
        {
          "internalType": "uint256",
          "name": "",
          "type": "uint256"
        }
      ],
      "stateMutability": "view",
      "type": "function"
    },
    {
      "inputs": [
        {
          "internalType": "address",
          "name": "from",
          "type": "address"
        },
        {
          "internalType": "address",
          "name": "to",
          "type": "address"
        },
        {
          "internalType": "uint256",
          "name": "tokenId",
          "type": "uint256"
        }
      ],
      "name": "transferFrom",
      "outputs": [],
      "stateMutability": "nonpayable",
      "type": "function"
    },
    {
      "inputs": [
        {
          "internalType": "address",
          "name": "newOwner",
          "type": "address"
        }
      ],
      "name": "transferOwnership",
      "outputs": [],
      "stateMutability": "nonpayable",
      "type": "function"
    }
  ],
  "bytecode": "0x608060405234801561001057600080fd5b506040516119e63803806119e683398101604081905261002f916101a6565b338383600061003e83826102c4565b50600161004b82826102c4565b5050506001600160a01b03811661007c57604051631e4fbdf760e01b81526000600482015260240160405180910390fd5b6100858161009b565b50600961009282826102c4565b50505050610382565b600780546001600160a01b038381166001600160a01b0319831681179093556040519116919082907f8be0079c531659141344cd1fd0a4f28419497f9722a3daafe3b4186f6b6457e090600090a35050565b634e487b7160e01b600052604160045260246000fd5b600082601f83011261011457600080fd5b81516001600160401b0381111561012d5761012d6100ed565b604051601f8201601f19908116603f011681016001600160401b038111828210171561015b5761015b6100ed565b60405281815283820160200185101561017357600080fd5b60005b8281101561019257602081860181015183830182015201610176565b506000918101602001919091529392505050565b6000806000606084860312156101bb57600080fd5b83516001600160401b038111156101d157600080fd5b6101dd86828701610103565b602086015190945090506001600160401b038111156101fb57600080fd5b61020786828701610103565b604086015190935090506001600160401b0381111561022557600080fd5b61023186828701610103565b9150509250925092565b600181811c9082168061024f57607f821691505b60208210810361026f57634e487b7160e01b600052602260045260246000fd5b50919050565b601f8211156102bf57806000526020600020601f840160051c8101602085101561029c5750805b601f840160051c820191505b818110156102bc57600081556001016102a8565b50505b505050565b81516001600160401b038111156102dd576102dd6100ed565b6102f1816102eb845461023b565b84610275565b6020601f821160018114610325576000831561030d5750848201515b600019600385901b1c1916600184901b1784556102bc565b600084815260208120601f198516915b828110156103555787850151825560209485019460019092019101610335565b50848210156103735786840151600019600387901b60f8161c191681555b50505050600190811b01905550565b611655806103916000396000f3fe608060405234801561001057600080fd5b50600436106101515760003560e01c80636a627842116100cd578063a22cb46511610081578063c87b56dd11610066578063c87b56dd1461029e578063e985e9c5146102b1578063f2fde38b146102ed57600080fd5b8063a22cb46514610278578063b88d4fde1461028b57600080fd5b8063715018a6116100b2578063715018a6146102575780638da5cb5b1461025f57806395d89b411461027057600080fd5b80636a6278421461023157806370a082311461024457600080fd5b806318160ddd1161012457806342842e0e1161010957806342842e0e146101f857806355f804b31461020b5780636352211e1461021e57600080fd5b806318160ddd146101d357806323b872dd146101e557600080fd5b806301ffc9a71461015657806306fdde031461017e578063081812fc14610193578063095ea7b3146101be575b600080fd5b6101696101643660046110f4565b610300565b60405190151581526020015b60405180910390f35b610186610344565b6040516101759190611161565b6101a66101a1366004611174565b6103d6565b6040516001600160a01b039091168152602001610175565b6101d16101cc3660046111a4565b6103ff565b005b6008545b604051908152602001610175565b6101d16101f33660046111ce565b61040e565b6101d16102063660046111ce565b6104b7565b6101d161021936600461129b565b6104d7565b6101a661022c366004611174565b6104eb565b6101d761023f3660046112e4565b6104f6565b6101d76102523660046112e4565b61055b565b6101d16105bc565b6007546001600160a01b03166101a6565b6101866105d0565b6101d16102863660046112ff565b6105df565b6101d161029936600461133b565b6105ea565b6101866102ac366004611174565b610602565b6101696102bf3660046113b7565b6001600160a01b03918216600090815260056020908152604080832093909416825291909152205460ff1690565b6101d16102fb3660046112e4565b610706565b60006001600160e01b031982167f4906490600000000000000000000000000000000000000000000000000000000148061033e575061033e8261075d565b92915050565b606060008054610353906113ea565b80601f016020809104026020016040519081016040528092919081815260200182805461037f906113ea565b80156103cc5780601f106103a1576101008083540402835291602001916103cc565b820191906000526020600020905b8154815290600101906020018083116103af57829003601f168201915b5050505050905090565b60006103e1826107f8565b506000828152600460205260409020546001600160a01b031661033e565b61040a828233610831565b5050565b6001600160a01b03821661043d57604051633250574960e11b8152600060048201526024015b60405180910390fd5b600061044a83833361083e565b9050836001600160a01b0316816001600160a01b0316146104b1576040517f64283d7b0000000000000000000000000000000000000000000000000000000081526001600160a01b0380861660048301526024820184905282166044820152606401610434565b50505050565b6104d2838383604051806020016040528060008152506105ea565b505050565b6104df610944565b600961040a828261146b565b600061033e826107f8565b6000610500610944565b600880549060006105108361152a565b9091555050600854610522838261098a565b6105538161052f83610a08565b60405160200161053f9190611551565b604051602081830303815290604052610aa8565b90505b919050565b60006001600160a01b0382166105a0576040517f89c62b6400000000000000000000000000000000000000000000000000000000815260006004820152602401610434565b506001600160a01b031660009081526003602052604090205490565b6105c4610944565b6105ce6000610af8565b565b606060018054610353906113ea565b61040a338383610b57565b6105f584848461040e565b6104b13385858585610c0f565b606061060d826107f8565b5060008281526006602052604081208054610627906113ea565b80601f0160208091040260200160405190810160405280929190818152602001828054610653906113ea565b80156106a05780601f10610675576101008083540402835291602001916106a0565b820191906000526020600020905b81548152906001019060200180831161068357829003601f168201915b5050505050905060006106b1610d3a565b905080516000036106c3575092915050565b8151156106f55780826040516020016106dd929190611592565b60405160208183030381529060405292505050919050565b6106fe84610d49565b949350505050565b61070e610944565b6001600160a01b038116610751576040517f1e4fbdf700000000000000000000000000000000000000000000000000000000815260006004820152602401610434565b61075a81610af8565b50565b60006001600160e01b031982167f80ac58cd0000000000000000000000000000000000000000000000000000000014806107c057506001600160e01b031982167f5b5e139f00000000000000000000000000000000000000000000000000000000145b8061033e57507f01ffc9a7000000000000000000000000000000000000000000000000000000006001600160e01b031983161461033e565b6000818152600260205260408120546001600160a01b03168061055357604051637e27328960e01b815260048101849052602401610434565b6104d28383836001610db1565b6000828152600260205260408120546001600160a01b039081169083161561086b5761086b818486610efc565b6001600160a01b038116156108a957610888600085600080610db1565b6001600160a01b038116600090815260036020526040902080546000190190555b6001600160a01b038516156108d8576001600160a01b0385166000908152600360205260409020805460010190555b600084815260026020526040808220805473ffffffffffffffffffffffffffffffffffffffff19166001600160a01b0389811691821790925591518793918516917fddf252ad1be2c89b69c2b068fc378daa952ba7f163c4a11628f55a4df523b3ef91a4949350505050565b6007546001600160a01b031633146105ce576040517f118cdaa7000000000000000000000000000000000000000000000000000000008152336004820152602401610434565b6001600160a01b0382166109b457604051633250574960e11b815260006004820152602401610434565b60006109c28383600061083e565b90506001600160a01b038116156104d2576040517f73c6ac6e00000000000000000000000000000000000000000000000000000000815260006004820152602401610434565b60606000610a1583610f79565b600101905060008167ffffffffffffffff811115610a3557610a3561120b565b6040519080825280601f01601f191660200182016040528015610a5f576020820181803683370190505b5090508181016020015b600019017f3031323334353637383961626364656600000000000000000000000000000000600a86061a8153600a8504945084610a6957509392505050565b6000828152600660205260409020610ac0828261146b565b506040518281527ff8e1a15aba9398e019f0b49df1a4fde98ee17ae345cb5f6b5e2c27f5033e8ce79060200160405180910390a15050565b600780546001600160a01b0383811673ffffffffffffffffffffffffffffffffffffffff19831681179093556040519116919082907f8be0079c531659141344cd1fd0a4f28419497f9722a3daafe3b4186f6b6457e090600090a35050565b6001600160a01b038216610ba2576040517f5b08ba180000000000000000000000000000000000000000000000000000000081526001600160a01b0383166004820152602401610434565b6001600160a01b03838116600081815260056020908152604080832094871680845294825291829020805460ff191686151590811790915591519182527f17307eab39ab6107e8899845ad3d59bd9653f200f220920489ca2b5937696c31910160405180910390a3505050565b6001600160a01b0383163b15610d3357604051630a85bd0160e11b81526001600160a01b0384169063150b7a0290610c519088908890879087906004016115c1565b6020604051808303816000875af1925050508015610c8c575060408051601f3d908101601f19168201909252610c8991810190611602565b60015b610cf5573d808015610cba576040519150601f19603f3d011682016040523d82523d6000602084013e610cbf565b606091505b508051600003610ced57604051633250574960e11b81526001600160a01b0385166004820152602401610434565b805181602001fd5b6001600160e01b03198116630a85bd0160e11b14610d3157604051633250574960e11b81526001600160a01b0385166004820152602401610434565b505b5050505050565b606060098054610353906113ea565b6060610d54826107f8565b506000610d5f610d3a565b90506000815111610d7f5760405180602001604052806000815250610daa565b80610d8984610a08565b604051602001610d9a929190611592565b6040516020818303038152906040525b9392505050565b8080610dc557506001600160a01b03821615155b15610ebf576000610dd5846107f8565b90506001600160a01b03831615801590610e015750826001600160a01b0316816001600160a01b031614155b8015610e3357506001600160a01b0380821660009081526005602090815260408083209387168352929052205460ff16155b15610e75576040517fa9fbf51f0000000000000000000000000000000000000000000000000000000081526001600160a01b0384166004820152602401610434565b8115610ebd5783856001600160a01b0316826001600160a01b03167f8c5be1e5ebec7d5bd14f71427d1e84f3dd0314c0f7b2291e5b200ac8c7c3b92560405160405180910390a45b505b50506000908152600460205260409020805473ffffffffffffffffffffffffffffffffffffffff19166001600160a01b0392909216919091179055565b610f0783838361105b565b6104d2576001600160a01b038316610f3557604051637e27328960e01b815260048101829052602401610434565b6040517f177e802f0000000000000000000000000000000000000000000000000000000081526001600160a01b038316600482015260248101829052604401610434565b6000807a184f03e93ff9f4daa797ed6e38ed64bf6a1f0100000000000000008310610fc2577a184f03e93ff9f4daa797ed6e38ed64bf6a1f010000000000000000830492506040015b6d04ee2d6d415b85acef81000000008310610fee576d04ee2d6d415b85acef8100000000830492506020015b662386f26fc10000831061100c57662386f26fc10000830492506010015b6305f5e1008310611024576305f5e100830492506008015b612710831061103857612710830492506004015b6064831061104a576064830492506002015b600a83106105535760010192915050565b60006001600160a01b038316158015906106fe5750826001600160a01b0316846001600160a01b031614806110b557506001600160a01b0380851660009081526005602090815260408083209387168352929052205460ff165b806106fe5750506000908152600460205260409020546001600160a01b03908116911614919050565b6001600160e01b03198116811461075a57600080fd5b60006020828403121561110657600080fd5b8135610daa816110de565b60005b8381101561112c578181015183820152602001611114565b50506000910152565b6000815180845261114d816020860160208601611111565b601f01601f19169290920160200192915050565b602081526000610daa6020830184611135565b60006020828403121561118657600080fd5b5035919050565b80356001600160a01b038116811461055657600080fd5b600080604083850312156111b757600080fd5b6111c08361118d565b946020939093013593505050565b6000806000606084860312156111e357600080fd5b6111ec8461118d565b92506111fa6020850161118d565b929592945050506040919091013590565b634e487b7160e01b600052604160045260246000fd5b60008067ffffffffffffffff84111561123c5761123c61120b565b50604051601f19601f85018116603f0116810181811067ffffffffffffffff8211171561126b5761126b61120b565b60405283815290508082840185101561128357600080fd5b83836020830137600060208583010152509392505050565b6000602082840312156112ad57600080fd5b813567ffffffffffffffff8111156112c457600080fd5b8201601f810184136112d557600080fd5b6106fe84823560208401611221565b6000602082840312156112f657600080fd5b610daa8261118d565b6000806040838503121561131257600080fd5b61131b8361118d565b91506020830135801515811461133057600080fd5b809150509250929050565b6000806000806080858703121561135157600080fd5b61135a8561118d565b93506113686020860161118d565b925060408501359150606085013567ffffffffffffffff81111561138b57600080fd5b8501601f8101871361139c57600080fd5b6113ab87823560208401611221565b91505092959194509250565b600080604083850312156113ca57600080fd5b6113d38361118d565b91506113e16020840161118d565b90509250929050565b600181811c908216806113fe57607f821691505b60208210810361141e57634e487b7160e01b600052602260045260246000fd5b50919050565b601f8211156104d257806000526020600020601f840160051c8101602085101561144b5750805b601f840160051c820191505b81811015610d335760008155600101611457565b815167ffffffffffffffff8111156114855761148561120b565b6114998161149384546113ea565b84611424565b6020601f8211600181146114cd57600083156114b55750848201515b600019600385901b1c1916600184901b178455610d33565b600084815260208120601f198516915b828110156114fd57878501518255602094850194600190920191016114dd565b508482101561151b5786840151600019600387901b60f8161c191681555b50505050600190811b01905550565b60006001820161154a57634e487b7160e01b600052601160045260246000fd5b5060010190565b60008251611563818460208701611111565b7f2e6a736f6e000000000000000000000000000000000000000000000000000000920191825250600501919050565b600083516115a4818460208801611111565b8351908301906115b8818360208801611111565b01949350505050565b6001600160a01b03851681526001600160a01b03841660208201528260408201526080606082015260006115f86080830184611135565b9695505050505050565b60006020828403121561161457600080fd5b8151610daa816110de56fea2646970667358221220cb03300a91f8c90a237716c75e43a62103c3723acc812d524a68838d625d6e6064736f6c634300081c0033",
  "linkReferences": {},
  "deployedLinkReferences": {}
}